:040000000200803248
:03000B000200CA26
:0100130032BA
:01001B0032B2
:0100230032AA
:100080007581601200A2C29CD2AF12088712087854
:10009000300005C20012018C309805C298120491FC
:1000A00080EE75890175881075A802759872D29CCA
:1000B00053890F43892085F58D85F58B758DF5D294
:1000C0008E78607400F6D8FDF622C0D0FED2D375CB
:1000D0008CF4758A48054BE54BB40403754B00302E
:1000E0000311E54BB54C2F0200EA12011C20041944
:1000F0000200F912011C200407C202C20302011609
:10010000D203E54BF54C02011620020A120926D251
:1001100002D200020116C2D3EED0D032E54BD29CFF
:10012000B400067590EF020141B401067590DF023C
:100130000141B402067590BF020141B403037590FA
:100140007F2090030201582091030201582092035E
:10015000020158C20402018B20900E754A00E54A44
:10016000254BF54AD20402018B20910E754A04E515
:100170004A254BF54AD20402018B20920E754A089B
:10018000E54A254BF54AD20402018B22C200E54A1A
:10019000F599E541B40055E54AB42B0302047FB458
:1001A0002D0302047FB42F0302047FB42A03020448
:1001B0007FB4520302047FB4430302047FB43D03BF
:1001C00002047F7541011209117830740DF530E594
:1001D0004A2430F531E54AB40009E544C333F54417
:1001E00002048DE544D333F54402048DE541B401A6
:1001F00051E54AB42B03020469B42D03020469B427
:100200002F03020469B42A03020469B452030204EE
:100210007FB443087541007544000190B43D03026A
:10022000047F754102E54A2430F532E54AB400B353
:10023000E544C333F54402048DE544D333F5440269
:10024000048DE541B40251E54AB42B03020469B4BC
:100250002D03020469B42F03020469B42A030204C3
:1002600069B4520302047FB4430875410075440029
:100270000190B43D0302047F754103E54A2430F543
:1002800033E54AB40009E544C333F54402048DE57F
:1002900044D333F54402048DE541B40351E54AB437
:1002A0002B03020469B42D03020469B42F03020472
:1002B00069B42A03020469B4520302047FB44308F8
:1002C0007541007544000190B43D0302047F7541FF
:1002D00004E54A2430F534E54AB40009E544C33363
:1002E000F54402048DE544D333F54402048DE54121
:1002F000B40451E54AB42B03020469B42D0302048B
:1003000069B42F03020469B42A03020469B45203D6
:1003100002047FB443087541007544000190B43D68
:100320000302047F754105E54A2430F535E54AB4FA
:100330000009E544C333F54402048DE544D333F5A5
:100340004402048DE541B40551E54AB42B0302048F
:1003500069B42D03020469B42F03020469B42A03AB
:10036000020469B4520302047FB443087541007566
:1003700044000190B43D0302047FE54A2430F53681
:10038000754106E54AB40009E544C333F544020467
:100390008DE544D333F54402048DE541B40651E5BF
:1003A0004AB42B03020469B42D03020469B42F0379
:1003B000020469B42A03020469B4520302047FB43C
:1003C00043087541007544000190B43D0302047F69
:1003D000754107E54A2430F537E54AB40009E5449C
:1003E000C333F54402048DE544D333F54402048D50
:1003F000E541B40751E54AB42B03020469B42D0367
:10040000020469B42F03020469B42A03020469B424
:10041000520302047FB44308754100754400019003
:10042000B43D0302047FE54A2430F538754108E500
:100430004AB40009E544C333F544020484E544D3D7
:1004400033F544020484E54AB4520302047FB44302
:10045000087541007544000190B43D0302047FB467
:1004600000020190B401020190754109E54AF54787
:10047000C298C2AFD29C12091112089502049020B2
:1004800002FD01001208FB1209110204901208FB80
:1004900032E541B41403020691E599F54DB45203D7
:1004A000020691B4430875410975450080E31209BD
:1004B00042E541B40939E54DB401030204C6B40074
:1004C000030204C6019812091175410A7830740DAF
:1004D000F530E54D2430F531E54DB40009E545C36F
:1004E00033F545020693E545D333F545020693E51A
:1004F00041B40A34E54DB43D03020688B401030259
:10050000050AB4000302050A01982430F53275414A
:100510000BE54DB40009E545C333F545020693E507
:1005200045D333F545020693E541B40B34E54DB4AC
:100530003D03020688B40103020543B4000302052B
:100540004301982430F53375410CE54DB40009E5BD
:1005500045C333F545020693E545D333F545020619
:1005600093E541B40C34E54DB43D03020688B40173
:100570000302057CB4000302057C01982430F534A5
:1005800075410DE54DB40009E545C333F545020657
:1005900093E545D333F545020693E541B40D34E5C3
:1005A0004DB43D03020688B401030205B5B400034F
:1005B0000205B501982430F53575410EE54DB400BE
:1005C00009E545C333F545020693E545D333F545C3
:1005D000020693E541B40E34E54DB43D03020688AE
:1005E000B401030205EEB400030205EE01982430C5
:1005F000F53675410FE54DB40009E545C333F545C2
:10060000020693E545D333F545020693E541B40F61
:1006100034E54DB43D03020688B40103020627B455
:10062000000302062701982430F537754110E54D87
:10063000B40009E545C333F545020693E545D333D8
:10064000F545020693E541B41031E54DB43D030292
:100650000688B40103020660B40003020660019834
:100660002430F538E54DB40009E545C333F54502BE
:100670000693E545D333F545020693E541B41108E9
:10068000E54DB4520C02069112069775411102060F
:100690009601001208FB22754E00754F00120911D9
:1006A000E547B42B030206BDB42D0302082DB42A7E
:1006B00003020842B42F03020850020869E54425EA
:1006C00045F54E5002054F7830740DF530E54F3347
:1006D000F54F20051050077431F5310206EC7430E7
:1006E000F5310206EC742DF5310206ECE54F33F5D9
:1006F0004F50077431F5320207017430F5320207AA
:1007000001E54F33F54F50077431F5330207167486
:1007100030F533020716E54F33F54F50077431F5C6
:100720003402072B7430F53402072BE54F33F54FB5
:1007300050077431F5350207407430F53502074033
:10074000E54F33F54F50077431F5360207557430D5
:10075000F536020755E54F33F54F50077431F5373D
:1007600002076A7430F53702076AE54F33F54F50D8
:10077000077431F53802077F7430F53802077FE5DA
:100780004E33F54E50077431F5390207947430F545
:1007900039020794E54E33F54E50077431F53A02AD
:1007A00007A97430F53A0207A9E54E33F54E500714
:1007B0007431F53B0207BE7430F53B0207BEE54ECF
:1007C00033F54E50077431F53C0207D37430F53CD5
:1007D0000207D3E54E33F54E50077431F53D02075D
:1007E000E87430F53D0207E8E54E33F54E500774E6
:1007F00031F53E0207FD7430F53E0207FDE54E334C
:10080000F54E50077431F53F0208127430F53F027F
:100810000812E54E33F54E50077431F540020827B3
:100820007430F5400208271208FB020869E544C34A
:100830009545F54E5009F404F54ED2050206C7025F
:1008400006C7E5448545F0A4F54E85F04F0206C77E
:10085000E545B400091209111208B1020000E5448F
:100860008545F084F54E0206C7229008700208ED17
:100870000D2020202020202090087E0208ED0D4D24
:10088000494E492D4B3A2090088D0208ED0D5354E6
:100890004152543A2090089B0208ED0D50432D4BD5
:1008A0003A20209008A90208ED0D434F503A20202D
:1008B000209008B70208ED0D4572726F7220207803
:1008C00030740DF608E5442430F608E5452430F68A
:1008D00008E5462430F6087420F608E5492430F689
:1008E00008E5482430F6082430F60208FB78307B0F
:1008F00000EB93F60B08EB547860F679307B11C26D
:100900009C3099FDE7F599C29909DBF5C298D29C14
:10091000227420F530F531F532F533F534F535F53F
:1009200036F537F53822E54A540F90093193F54AE8
:1009300022002B2A0A012D2F003D43520D0A0A0ADC
:100940000A0AE54D540F90094D93F54D220001021E
:0D095000030405430708523D3D3D3D3D3D7C
:00000001FF
